{
  "contractName": "TodoList",
  "abi": [
    {
      "inputs": [],
      "stateMutability": "nonpayable",
      "type": "constructor"
    },
    {
      "inputs": [
        {
          "internalType": "uint256",
          "name": "",
          "type": "uint256"
        }
      ],
      "name": "tasks",
      "outputs": [
        {
          "internalType": "uint256",
          "name": "id",
          "type": "uint256"
        },
        {
          "internalType": "string",
          "name": "content",
          "type": "string"
        },
        {
          "internalType": "bool",
          "name": "completed",
          "type": "bool"
        }
      ],
      "stateMutability": "view",
      "type": "function",
      "constant": true
    },
    {
      "inputs": [
        {
          "internalType": "string",
          "name": "_content",
          "type": "string"
        }
      ],
      "name": "createTask",
      "outputs": [],
      "stateMutability": "nonpayable",
      "type": "function"
    }
  ],
  "bytecode": "0x60806040526000805534801561001457600080fd5b5060408051808201909152600b81526a48656c6c6f20746865726560a81b602082015261004090610045565b6101bc565b60008054908061005483610195565b9091555050604080516060810182526000805480835260208084018681528486018490529183526001808252949092208351815590518051939491936100a2939285019291909101906100c1565b50604091909101516002909101805460ff191691151591909117905550565b8280546100cd9061015a565b90600052602060002090601f0160209004810192826100ef5760008555610135565b82601f1061010857805160ff1916838001178555610135565b82800160010185558215610135579182015b8281111561013557825182559160200191906001019061011a565b50610141929150610145565b5090565b5b808211156101415760008155600101610146565b600181811c9082168061016e57607f821691505b6020821081141561018f57634e487b7160e01b600052602260045260246000fd5b50919050565b60006000198214156101b557634e487b7160e01b81526011600452602481fd5b5060010190565b610410806101cb6000396000f3fe608060405234801561001057600080fd5b50600436106100365760003560e01c8063111002aa1461003b5780638d97767214610050575b600080fd5b61004e61004936600461023d565b61007b565b005b61006361005e3660046102e7565b6100f7565b604051610072939291906102ff565b60405180910390f35b60008054908061008a8361039d565b9091555050604080516060810182526000805480835260208084018681528486018490529183526001808252949092208351815590518051939491936100d8939285019291909101906101a4565b50604091909101516002909101805460ff191691151591909117905550565b60016020819052600091825260409091208054918101805461011890610362565b80601f016020809104026020016040519081016040528092919081815260200182805461014490610362565b80156101915780601f1061016657610100808354040283529160200191610191565b820191906000526020600020905b81548152906001019060200180831161017457829003601f168201915b5050506002909301549192505060ff1683565b8280546101b090610362565b90600052602060002090601f0160209004810192826101d25760008555610218565b82601f106101eb57805160ff1916838001178555610218565b82800160010185558215610218579182015b828111156102185782518255916020019190600101906101fd565b50610224929150610228565b5090565b5b808211156102245760008155600101610229565b60006020828403121561024e578081fd5b813567ffffffffffffffff80821115610265578283fd5b818401915084601f830112610278578283fd5b81358181111561028a5761028a6103c4565b604051601f8201601f19908116603f011681019083821181831017156102b2576102b26103c4565b816040528281528760208487010111156102ca578586fd5b826020860160208301379182016020019490945295945050505050565b6000602082840312156102f8578081fd5b5035919050565b838152600060206060818401528451806060850152825b8181101561033257868101830151858201608001528201610316565b818111156103435783608083870101525b5093151560408401525050601f91909101601f19160160800192915050565b600181811c9082168061037657607f821691505b6020821081141561039757634e487b7160e01b600052602260045260246000fd5b50919050565b60006000198214156103bd57634e487b7160e01b81526011600452602481fd5b5060010190565b634e487b7160e01b600052604160045260246000fdfea2646970667358221220243d8c766204228ee610f73e0048a908eaa40660c95fb1b7dc58191096330e8b64736f6c63430008040033",
  "immutableReferences": {},
  "source": "pragma solidity ^0.8.4;\n\ncontract TodoList {\n\n    uint taskCount = 0;\n\n    struct Task {\n        uint id;\n        string content;\n        bool completed;\n    }\n\n    mapping(uint => Task) public tasks;\n\n    constructor() public {\n        createTask(\"Hello there\");\n    }\n\n    function createTask(string memory _content) public {\n        taskCount ++;\n        tasks[taskCount] = Task(taskCount, _content, false);\n    }\n}",
  "sourcePath": "/home/ddoslover/Documents/codes/blockchain-app/contracts/TodoList.sol",
  "compiler": {
    "name": "solc",
    "version": "0.8.4+commit.c7e474f2.Emscripten.clang"
  },
  "schemaVersion": "3.4.0",
  "updatedAt": "2021-06-19T15:01:55.402Z",
  "networkType": "ethereum",
  "devdoc": {
    "kind": "dev",
    "methods": {},
    "version": 1
  },
  "userdoc": {
    "kind": "user",
    "methods": {},
    "version": 1
  }
}